:400000000040002011000000DD040000DD04000080B500AF00F066FA80B500AF264B12221A6001F09BF8254B181C00F0D5FE012001F0A4F8302000F0DFFE214B214A1A604F
:40004000214B8022D2051A60204B204A126802210A431A601E4B1F4A1A601F4B1E4A126808218A431A60FA23DB00181C00F010FF1A4B181C01F016F8194BC82252011A6002
:40008000184B194A1A60194B802212061A60184B8022D2021A60174B40221A60164B0820191C00F03FFF082000F0B6FF064B8022D2051A60BD4680BD30001040001BB70048
:4000C00004010B40060000800C020B4078002E407C002E402D3E00006CF02E40DC050000000301400000014040FF008008010B4000010B4004010140CD12000080B582B07B
:4001000000AF72B6374B00221A60FB1D00221A7023E0FB1D1A78131C5B009B185B00324A9B183B603B681A78597809020A43997809040A43DB781B061343191C3B681A79F9
:400140005B791B0213439BB2081C191C00F04EFAFB1D1A78FB1D01321A70FB1D1B78012BD7D9224BEE2212061A60214B992212041A60204B992212041A601F4B992212049D
:400180001A601E4A1D4B1B78DBB202210B43DBB213701B4A1A4B1B78DBB23C218B43DBB214210B43DBB21370144A144B1B78DBB216210B43DBB21370124B3F221A60124B18
:4001C000124A1A60124B21221A60124B124A1A60124B20221A60FFF71FFF00F017FABD4602B080BD6CF02E40A4170100000002400001024000500F4010500F4000700F40A4
:4002000001700F4000000440080004409244DA000001044008010440021003001801044010B5064C2378002B07D1054B002B02D0044800E000BF0123237010BDE003002046
:40024000000000004417010008B5084B002B03D00748084900E000BF07480368002B00D108BD064B002BFBD09847F9E70000000044170100E4030020C80000200000000009
:4002800080B500AF00F012F801F09CFE054B1B78012B05D1044B1B78012B01D100F01CF8F2E7C046FD030020CC00002080B500AF62B601F097F8064B181C00F0E1F9054B06
:4002C000181C01F0B9FA01F07DFEBD4680BDC0460D0300008017010080B582B000AF01F0EDF8031C7B607B68002B06D001F074FA031CDBB2181C00F0C3F8034BFA1C12782A
:400300001A70BD4602B080BDFC03002080B584B000AF786039607B68412B17D007D8052B00D197E0282B0DD0012B07D097E04C2B50D04E2B43D0422B1AD090E0002000F068
:400340000DFA8CE0002000F009FA88E0454A3B68111C1A1C0223081C111C1A1C01F01DFE414B01221A70414B181C01F065FA76E03D4B00221A703E4B00221A703C4B1A7821
:400380003C4B1A703B4B00225A703B4B10221A81394B384A1A60384B02229A80364A314B101C00211A1C40230CF0D8FD01F02CF801F040F901F0A6F801F014F84FE03B68D6
:4003C000FB60FB685A68FB681B89101C191C01F017F944E0254B181C01F02EFA3B68BB60BB685B6801331B78012B03D1204B01221A7008E0BB685B6801331B78002B02D11D
:400400001B4B00221A701A4B1A781A4B1A70194B00225A70184B10221A81174B154A1A60154B02229A80144A0E4B101C00211A1C40230CF093FD0B4B1A785B781B021A430D
:4004400000231204120C1B0C1B041343181C0CF053F804E03B681A78084B1A70C046BD4604B080BDF0120020FD03002088170100CC000020EC120020F4120020FE030020EB
:4004800080B586B000AF021CFB1D1A70114B1B78002B1BD10C23FB180E221A810C23FB18FA1D1A600C23FB1801229A800A4B0C22B9181A785B781B021A4300231204120C73
:4004C0001B0C1B041343181C0BF0B8FFBD4606B080BDC046FE030020F012002080B500AFFEE7C04680B586B000AF224B7B61224B3B61204B7B6135E03B691B68FB603B697E
:400500005B68BB603B699B683B6000237B600CE0FB681A68BB681A60BB680433BB60FB680433FB607B6804337B607A683B689A42EED13B69DB683B6000237B6008E0BB6825
:4005400000221A60BB680433BB607B6804337B607A683B689A42F2D13B6910333B617B69013B7B617B69002BC6D101F0E1FCFFF787FEFEE701000000BC1B010080B582B0BE
:4005800000AF154B144A126801218A431A6000237B600FE07B68032B04D8104B7A689200D35800E00E4B0F4A796889008B507B6801337B607B682F2BECD9FFF79FFD0A4B65
:4005C00000221A60044B044A126801210A431A60BD4602B080BDC0460000104000000000DD04000000000020C000002080B582B000AF786039607A683B68101C00211A1CA7
:4006000001F0D4FCBD4602B080BDC04680B500AF054B03221A60054B03221A60044B00221A60BD4680BDC0463000304030003140000E3F4080B500AF094B00221A70094B08
:4006400000221A70084B00221A7000F013F8074B00221A70064B00221A70BD4680BDC046E31D0020DC1D0020E21D002000130020D01D002080B500AF00F0A8FBBD4680BD44
:40068000F0B58FB004AF78602623FB1800221A800C23FA18284B111C1A1C1823081C111C1A1C01F07AFC254B1B78002B04D1FFF7C1FF224B01221A707B68002B30D0262349
:4006C000FB181B88002B2FD11D4B7A681A602623FC181C491C4A1D4E0C23FD18062300931B4B01936E23FF330293081C111C321C2B1C01F07DFC031C23802623FB181B885F
:40070000002B11D1134B01221A702623FC18124B181C10210D220CF009FC031C238003E02623FB1801221A802623FB181B88181CBD460BB0F0BDC046701901000004002042
:40074000041300208D0A000008130020C80A000080220100D81D0020281A010090B585B000AF021CFB1D1A70FB1D1B78022B04D90E23FB1801221A804BE0294B1B78042BA3
:4007800042D1284B1B78DBB21A1C042313403BD1FB1D1B78002B0BD1234B00221A82224B5B6820221A80204B5B6860225A8010E0FB1D1B78012B0CD11B4B96221A821A4BA0
:4007C0005B68C822D2001A80174B5B688022D2015A80164BFA1D12781A700E23FC18124B181C0AF0E9FC031C23800E23FB181B88002B08D10B4B1B78DBB204221343DAB200
:40080000084B1A7005E004E00E23FB180422FF321A800E23FB181B88181CBD4605B090BDD81D0020E31D002000010020E21D002080B584B000AF78600A1CFB1C1A7000236E
:40084000BB60BB68002B20D07B689A79BB681A700F23FB1800221A7012E00F23FB181B780133BA68D3180F22BA18127879688A5C1A700F23FB181A780F23FB1801321A70C9
:400880000F23FB181B78052BE7D9BD4604B080BD80B582B000AF78607B681B789AB27B6801331B789BB21B029BB213439BB2181CBD4602B080BDC04690B585B000AF78609B
:4008C0000F23FB1800221A707B689B890B22934237D17B681A1D7B680F217C18101C00211A1C40230CF03AFB031C23700F23FB181B78002B1DD17B685B68181CFFF7C8FFE4
:40090000031C1A1C022313409BB2002B08D0104B1B68822251007A68081C111C984708E00B4B1B680622FF32111C7A68081C111C9847084B1B78DBB201229343DAB2054B14
:400940001A700F23FB181B78181CBD4605B090BD04130020E31D002090B585B000AF78600F23FC187B68181CFFF7A6FF031C2370144B1B78DBB21A1C012313401FD10F238C
:40098000FB181B78002B16D00823FB1812229A707B689A890823FB181A800823FB180F22BA181278DA707B680822BA181868111C0BF028FD03E07B6818680BF09DFDBD4687
:4009C00005B090BDE31D002080B582B000AF7860BD4602B080BDC04680B500AF034B00225A70024B00221A70BD4680BDE01D002080B582B000AF7860BD4602B080BDC04695
:400A000080B500AFBD4680BD80B584B000AF78600E23FB1800221A707B689B79002B1CD10F23FB1800221A7012E00F23FB181B787A68D35C002B04D00E23FB1801221A70E7
:400A40000BE00F23FB181A780F23FB1801321A700F23FB181B78052BE7D90E23FB181B78181CBD4604B080BD80B582B000AF021CBB1D1A80BD4602B080BDC04680B582B0E6
:400A800000AF7860BD4602B080BDC04680B584B000AF021C3960FB1D1A70C04B1B78DBB201221343DAB2BD4B1A70FB1D1B78412B00D102E120DC242B00D1A8E00DDC022BFF
:400AC00000D183E002DC012B38D04CE1052B00D181E0212B00D183E045E1272B00D1A0E003DC262B00D1A8E03DE1282B00D1A0E02A2B00D190E036E14F2B00D12CE10BDCA1
:400B0000432B00D1F9E000DAF4E04C2B00D111E14E2B00D122E126E1572B00D120E106DC502B00D11EE1542B00D108E11BE1712B00D1BCE0FA2B00D106E114E10C23FB188E
:400B400007221A700C23FB1800225A700C23FB18181C02F092FE0C23FB1807221A700C23FB1801225A700C23FB18181C02F085FE8B4B1B68181CFFF747FF031E11D0884BEF
:400B80001B68181C01F022FA854B1B68181C0021FFF74EFE824B1B68181C0121FFF748FE0DE0804B181C01F011FA7E4B181C0021FFF73EFE7B4B181C0121FFF739FE002004
:400BC0000AF0BCF9784B04221A70CCE03B68181CFFF70EFFC7E03B681A78744B1A70C2E06E4B1B78DBB21A1C202313400ED1704B1B78102B02D16E4B0522DA706D4B1A7832
:400C00006B4B101C191C0AF0A1FAACE0ABE03B685A78694B1A70A6E03B68181CFFF72EFFA1E03B68181CFFF729FF5F4B02221A7099E05D4B04221A7095E05B4B1B78022B44
:400C400034D0564B1B78DBB21A1C012313402DD0524B1B78DBB21A1C042313400BD0524B03221A704D4B1B78DBB204229343DAB24A4B1A701AE0494B1B78DBB21A1C082303
:400C800013400BD0484B04221A70444B1B78DBB208229343DAB2414B1A7007E0424B1B78032B03D1404B04221A705CE05BE03B681B88181CFFF7D8FE55E03E4A3B68111CE4
:400CC0001A1C0223081C111C1A1C01F066F9394B1B785A339A00394BD3180533384A111C1A1C0423081C111C1A1C01F056F9FFF787FE38E0FFF770FE35E03B685B88162B37
:400D000005D80E23FB183A6852881A8003E00E23FB1817221A803B680E22BA1811881A8800231204120C1B0C1B041343181C0BF075FB18E03B68181CFFF70EFE13E03B68A9
:400D4000181CFFF741FE0EE01E4B1B7801221343DAB21C4B1A7006E0C04604E0C04602E0C04600E0C0460D4B1B78DBB21A1C112313400FD0094B1B78DBB201229343DAB279
:400D8000064B1A70104B1B68FA1D11783A68081C111C9847BD4604B080BDC046E31D00201C01002014010020D81D0020DC1D0020A0010020E01D0020D01D002080220100C0
:400DC000D41D0020001300200413002080B500AFBD4680BD000000000230800803D00138FDD1C046C046C0467047EFF3108072B6704780F31088704790B58BB000AF7860DD
:400E00002723FC18FFF7F1FF031C2370184B1A680C23FB181A60174B1A680C23FB185A607B68033B144AD35C1A1C0C23FB189A60124B1A680C23FB18DA601C23FB18104A14
:400E40001A600C23FA181C23FB185A600D4B1C22BA181A600C4B0D4A1A600A4B1B682723FB181B78181CFFF7C4FFBD460BB090BD08010B4000010B40681B0100300010403D
:400E8000B6EA000008001040040010401700008080B584B000AF78600023FB60154B154A126801210A431A60134B144A1A60144B134A1268802109020A431A607B68002BD2
:400EC00012D01023FB600CE0012000F0EBF800F019F8031E02D00023FB6005E07B68013B7B607B68002BEFD1FB68181CBD4604B080BDC04660F02E4078002E40022000002C
:400F000010002E4080B582B000AF054B1B68012213407B607B68181CBD4602B080BDC0460C002E4080B584B000AF021C3960FB1D1A7080239B05FB60FB1D1B781F2B02D991
:400F4000002000F0A5F8FB1D1B7810339B00FA68D3181B68BB60FB1D1B7810339B00FA68D3183A681A60BB68181CBD4604B080BD90B587B000AF021CFB1D1A70BB1D0A1C2A
:400F80001A70BB1D1B78032B02D9002000F080F8FB1D1B781F2B02D9002000F079F8FB1D1B7803221340DB0006337B611323FC18FFF71BFF031C2370FB1D1B789B08DBB260
:400FC0009B00144A944663441B68FB607B6903229A40131CDA43FB681340FB60BB1D1A787B699A40131CFA681343FB60FB1D1B789B08DBB29B00074A94466344FA681A60CB
:401000001323FB181B78181CFFF7F3FEBD4607B090BDC04600E400E080B582B000AF021CFB1D1A70054BFA1D12781F210A40012191400A1C1A60BD4602B080BD00E100E051
:4010400080B582B000AF021CFB1D1A70054BFA1D12781F210A40012191400A1C1A60BD4602B080BD80E100E080B582B000AF021CFB1D1A70054BFA1D12781F210A400121E6
:4010800091400A1C1A60BD4602B080BD80E200E080B582B000AF021CFB1D1A7001BEBD4602B080BD80B582B000AF021CBB1D1A80BB1D1B88044A12785343181CFFF78CFEC1
:4010C000BD4602B080BDC046AC01002080B500AF0E4B0E4A126801218A431A600B4B0B4A126802218A431A60094B094A126830218A4310210A431A60054B054A12680721AC
:401100008A4301210A431A60BD4680BD00F02E4000FF2E4080B500AF0E4B0E4A126802218A431A600C4B0C4A126807218A4302210A431A60084B084A126830218A432021F1
:401140000A431A60034B034A126801210A431A60BD4680BD00F02E4000FF2E4080B500AFFFF7B4FF044B044A1268802109060A431A60BD4680BDC04600F02E4080B584B077
:4011800000AF78600C4B1B6801221340FB607B68002B02D0012B03D005E0FFF797FF06E0FFF7B8FF03E00020FFF772FFC046FB68181CBD4604B080BD00F02E4090B583B049
:4011C00000AFFC1DFFF711FE031C2370074B074A1268C02109020A431A60FB1D1B78181CFFF707FEBD4603B090BDC04600010B4080B500AF054B1A68C0231B02134001D097
:40120000012300E00023181CBD4680BD00010B4090B583B000AFFC1DFFF7E7FD031C23700C4B0C4A12680C490A408021C9010A431A60084B074A126807490A40802109029F
:401240000A431A60FB1D1B78181CFFF7D2FDBD4603B090BD00010B40FF3FFFFF90B585B000AF78600B23FC18FFF7BFFD031C2370FFF7BEFF031E04D00123FB60FFF7C8FFED
:4012800001E00023FB607B680D4A13407B600D4B0C4A12680C4911407A680A431A60094B1B68FB68012B01D1FFF788FF0B23FB181B78181CFFF79DFDBD4605B090BDC04698
:4012C0000404040010020B40FBFBFBFF80B500AF334B1B68042213401FD0324B1B680422134017D0304B1B6804221340DA432D4B1B681A402B4B1A602B4B1B68042293431A
:401300001A1C294B1A60294B1B68002B02D0274B1B6898470420FFF7A1FF214B1A688023DB00134022D01F4B1A688023DB00134017D01D4B1A688023DB001340DA43194B76
:401340001B681A40174B1A60174B1B68184A1A40154B1A60154B5B68002B02D0134B5B6898478023DB00181CFFF778FF0C4B1A688023DB02134011D00A4B1A688023DB0216
:40138000134006D0094B9B68002B02D0074B9B6898478023DB02181CFFF760FFBD4680BD10020B40B40100202C04002030040020FFFBFFFF80B500AF00F06EF9BD4680BDEA
:4013C00080B500AF064B064A1268802109060A431A6000F033F800F039F8BD4680BDC0460000244080B500AF064B1B78002B04D1FFF7E0FF034B01221A70FFF7E1FFBD4620
:4014000080BDC0464004002080B500AF0920FFF717FE00F021F8074B064A1268520052081A60054B00221A600920FFF71DFEBD4680BDC04600002440880F244080B500AFF3
:401440000920FFF7E9FDBD4680BDC04680B500AF00F0A2F9BD4680BD80B500AF00F0AEF9BD4680BD80B582B000AF00237B600F4B1A680F4B1B689A4212D00D4B1B6801331D
:401480003B603B680B4A934201D100233B600A4A3B68D3181B78DBB27B60054B3A681A607B68181CBD4602B080BDC046EC1D0020E81D002001080000F825002080B582B0E1
:4014C00000AF0D4B1B683B600C4B1B683A689A4205D30A4B1B683A68D31A7B6007E0074B1B683A68D31A064A944663447B607B68181CBD4602B080BDEC1D0020E81D002007
:401500000108000080B500AF0920FFF799FD0E4B1A680E4B1A600E4B00221A700D4B0D4A1268802149020A431A600A4B094A126809490A401A60094B094A1A600920FFF702
:401540006BFDBD4680BDC046E81D0020EC1D0020F425002004032440FFFFFEFFC00F2440ED0F000080B584B000AF78601D4B1A681D4B1B689A4209D11C4B1B681F221340A8
:40158000082B03D01A4B7A681A6028E0154B1B680133FB60FA6880231B019A4201D10023FB60C046104B1B68FA689A42FAD0114B02221A607B68D9B20F4AFB68D3180A1C7C
:4015C0001A70084BFA681A600C4B1B680222134005D10A4B094A126802210A431A60BD4604B080BDF01D0020E41D00200802244040022440800F2440F41D0020880F24408A
:4016000080B584B000AF786039600023FB6009E07A68FB68D3181B78181CFFF7A3FFFB680133FB60FA683B689A42F1D3BD4604B080BDC04680B500AF0920FFF701FD0F4B3F
:401640001A680F4B1A600F4B0E4A126802218A431A600D4B0C4A1268802149020A431A60094B094A126809490A401A60084B094A1A600920FFF7D0FCBD4680BDE41D002000
:40168000F01D0020880F244004022440FFFFFEFF800F2440F307000080B500AF264B274A1A60274B00221A60264B01221A60264B264A1A60264B07221A60264B00221A60D8
:4016C000254B01221A60254B204A1A60244B00221A60244B04221A600920FFF7B1FC09200321FFF745FC204B0920191CFFF71AFC1E4B00221A601E4B00221A601D4B0022B6
:401700001A601D4B00221A601C4B04221A601C4B00221A601B4B00221A601B4B00221A601A4B00221A701A4B00221A60194B00221A60BD4680BDC046000024400F00000250
:40174000400024404800244000032440070000800403244010032440440024400002244004022440500024406D180000880E2440C80E2440480F2440080F2440C80F2440F3
:40178000880F2440EC1D0020E81D0020F4250020F01D0020E41D002080B500AF054B054A126805490A40902109040A431A60BD4680BDC04600010240FFFF0FFF80B500AFC6
:4017C000034B034A126803490A401A60BD4680BD00010240FFFF0FFF80B582B000AF0920FFF72EFCFFF76AFE031E07D00920FFF713FCFFF737FE031C7B6005E00C4B1B686E
:401800007B600920FFF708FC0A4B1A68D8239B0013403B60074BD82292001A603B681B027A6813437B607B68181CBD4602B080BD40032440C00F244080B584B000AF786051
:401840000023FB6009E07A68FB68D3181B78181CFFF788FEFB680133FB607A68FB68D3181B78002BEFD1BD4604B080BD80B582B000AF344B1B68002B02D0324B1B68984706
:40188000314B1B680422134027D0304B1B6801337B607B682E4A934201D100237B602D4B1B687A689A4205D12B4B1B682B4B20221A700AE0284B1B68D9B2294A7B68D31836
:4018C0000A1C1A70214B7A681A60264B1B681F221340DAD1244B04221A60244B1B68022213402BD0224B1A68224B1B689A4215D0204B1B6801333B603A6880231B019A4230
:4019000001D100233B601C4B1C493A688A181278D2B21A60174B3A681A6006E0184B184A126802218A431A6005E0164B1B681F221340082BD6D1144B02221A60BD4602B089
:4019400080BDC04644040020CC0F2440EC1D002001080000E81D002040032440F4250020F825002008032440C00F24408C0F2440F01D0020E41D002040022440F41D002043
:40198000880F244008022440800F244080B582B000AF78600A1CBB1C1A80BB1C1A887B681A60BD4602B080BD80B582B000AF78600A1CBB1C1A80BB1C1A887B681A60BD4620
:4019C00002B080BD80B582B000AF304B1B78DBB21B022F4A1278D2B213437B602D4B1B78DBB21B022C4A1278D2B213433B603B682A4A934207D17B68072B04D1284B3B608C
:401A000004237B6009E03A68D4231B019A4204D17B68042B01D1224B3B60224B3A681A60214B7A681A60214B1B78DBB21B02204A1278D2B213437B607A6880239B019A42C9
:401A400002D07B68002B01D11A4B7B601A4B7A681A601A4B1B78DBB21B02194A1278D2B213437B607B68174A934206D07B68164A934202D07B68052B01D1144B7B60144B18
:401A80007A681A60BD4602B080BDC046D9F0FF0FD8F0FF0FDFF0FF0FDEF0FF0F580B0000580D00006C002E4074002E40DBF0FF0FDAF0FF0F0220000078002E40DDF0FF0F54
:401AC000DCF0FF0F0F0F000005050000050F000080002E4080B582B000AF021CBB1D1A80BB1D1B88181CFFF7DDFABD4602B080BD80B500AF00F066F8BD4680BD80B500AF78
:401B000000F06AF8BD4680BD80B500AF00F064F8044B181C00F024F8032000F02DF8BD4680BDC046211C000080B500AF024B181C00F004F8BD4680BD211C000080B582B064
:401B400000AF786000F048F87B68181C00F008F8032000F011F800F035F8BD4602B080BD80B582B000AF7860024B7A681A67BD4602B080BD0000002090B585B000AF021C85
:401B8000FB1D1A700623FB600B23FC18FFF72DF9031C23700A4B0A4A1268C0218A43111CFA1D1078FA689040021C0A431A600B23FB181B78181CFFF71CF9BD4605B090BD23
:401BC0000CE400E080B500AF024B802252011A60BD4680BD00E100E080B500AF024B802252011A60BD4680BD80E100E090B583B000AFFC1DFFF7F9F8031C2370074B074AD7
:401C0000126804218A431A6030BFFB1D1B78181CFFF7EFF8BD4603B090BDC04610ED00E080B500AF0FF07AFDBD4680BD002243088B4274D303098B425FD3030A8B4244D316
:401C4000030B8B4228D3030C8B420DD3FF22090212BA030C8B4202D31212090265D0030B8B4219D300E0090AC30B8B4201D3CB03C01A5241830B8B4201D38B03C01A524137
:401C8000430B8B4201D34B03C01A5241030B8B4201D30B03C01A5241C30A8B4201D3CB02C01A5241830A8B4201D38B02C01A5241430A8B4201D34B02C01A5241030A8B42FE
:401CC00001D30B02C01A5241CDD2C3098B4201D3CB01C01A524183098B4201D38B01C01A524143098B4201D34B01C01A524103098B4201D30B01C01A5241C3088B4201D3F3
:401D0000CB00C01A524183088B4201D38B00C01A524143088B4201D34B00C01A5241411A00D20146524110467047FFE701B5002000F0FCF802BDC0460029F7D003B5FFF78C
:401D400075FF0EBC4243891A1847C04603460B437FD4002243088B4274D303098B425FD3030A8B4244D3030B8B4228D3030C8B420DD3FF22090212BA030C8B4202D31212D2
:401D8000090265D0030B8B4219D300E0090AC30B8B4201D3CB03C01A5241830B8B4201D38B03C01A5241430B8B4201D34B03C01A5241030B8B4201D30B03C01A5241C30AB4
:401DC0008B4201D3CB02C01A5241830A8B4201D38B02C01A5241430A8B4201D34B02C01A5241030A8B4201D30B02C01A5241CDD2C3098B4201D3CB01C01A524183098B4272
:401E000001D38B01C01A524143098B4201D34B01C01A524103098B4201D30B01C01A5241C3088B4201D3CB00C01A524183088B4201D38B00C01A524143088B4201D34B000A
:401E4000C01A5241411A00D201465241104670475DE0CA0F00D04942031000D34042534000229C4603098B422DD3030A8B4212D3FC22890112BA030A8B420CD3890192117F
:401E80008B4208D3890192118B4204D389013AD0921100E08909C3098B4201D3CB01C01A524183098B4201D38B01C01A524143098B4201D34B01C01A524103098B4201D3E1
:401EC0000B01C01A5241C3088B4201D3CB00C01A524183088B4201D38B00C01A5241D9D243088B4201D34B00C01A5241411A00D20146634652415B10104601D34042002B60
:401F000000D54942704763465B1000D3404201B5002000F00BF802BD0029F8D003B5FFF715FF0EBC4243891A1847C0467047C0460E4B70B500251E1C0D4CE41AA410A54203
:401F400004D0AB00F35898470135F8E70FF024FE084B00251E1C084CE41AA410A54204D0AB00F35898470135F8E770BDA41B0100A41B0100A41B0100AC1B010030B50024E7
:401F8000944208D0035D651C0C5DA34201D0181B02E02C1CF4E7002030BD002310B5934203D0CC5CC4540133F9E710BD031C8218934202D019700133FAE7704710B501F012
:401FC000FDFB10BD10B500F067F910BD10B50749044609780220002907D1204601F00FFC002802D1204609F093F810BDC2020020FFB585B0002568460E9F057339481C467B
:402000000078002802D0082009B0F0BD10990F9801900097029105A807C800F067F80028F2D10120694603AA0D73002C1BD0002113E08B00E55A082D09D91E19B678002E43
:4020400005D0083DE55213785B1C137003E0042901D2012003E0491CC9B2B942E9D31178042900D300200028CED110990F9800F057FF002801D00120C6E701F09FFB1A4852
:402080000599016021888180A188C180A27A0272A17B4172A089012540084843A0810220A073208950432081A5726846037B22460799069800F0A2F80028A5D16846094C45
:4020C000007B607001F082FB00289DD1064806F0F5F9002898D106F011FA002894D1257092E70000B801002048040020FFB53A4F1C4603463F780020364A0A9E0B9D002F2F
:4021000012D100290FD0029991420CD3002B0AD0002C08D00999042905D3002E03D0FF216E318D4202D2012004B0F0BD00210A460D463FE08B001E19B678002E36D0E35A8E
:40214000002B33D073435B199DB20B0000F048F806040E15191D253F2388FF27A678233BEB37BB42DFD2032EDDD31FE0A3880C2BD9D91A4EB342D6D818E02389302BD2D1F8
:4021800014E0A389482BCED110E0228A134E1346233B223EB342C6D208E0A38A0F4F1E46233E223FBE42BED29342BCD80028BBD1491CC9B2099B9942BCD319461C225143E7
:4021C0004A190449521802998A42ACD8ACE70020EEE70000D8080000B8010020DCFF000030B47446641E2578641CAB4200D21D46635D5B00E31830BC18470000FFB50F46F5
:4022000006460024384381B01D46800701D0012438E0FFF789FCFFF771FC00F097FA00282ED100F0D3FB00282AD11849084600F0ABFE0004000C23D13000154E04D03060E0
:40224000B7800020F0803581AD1DEFB23946039800F046F804000ED1B088F2880837801AF9B280B201F080F9002801D0012407E0E8B200F019F900F031F9064901200870D6
:4022800000F076FA204605B0F0BD0000CD23000054040020BA01002010B503480078012801D101F003F810BDBA01002070B5084B0446DA889E8800205518B54206D81D686B
:4022C000AA182260DA885118D98070BD032070BD54040020014800897047000054040020F0B587B007460D4600208900009006916846FFF7DBFF844600285DD13048009985
:402300000160002117E02E4B88001A680629115406D22C4C0419667882185670628805E0C419203CA67A8218567022891B68C018491C4280C9B2A942E5D300242DE0601CE2
:40234000C2B2059025E01E4FA30039689600581840887118039604904E88B04217D938466F46FE80B6464F786E4677710297049F4F800168039F5E18767879184E70016820
:40238000764659184E800068029F18184770521CD2B2AA42D7D30598C4B2AC42CFD36046002809D168460699FFF780FF8446002802D1054900980860604607B0F0BD000080
:4023C000BC010020D01B0100C00100207047000010B5002809D005494A68002A05D0011F08788000105801F06DF810BDBC01002010B50446FFF76EFFC0B2801DA0420CD3ED
:4024000007484068002808D0A100405800F0CCFF002801D00470001D10BD002010BD0000BC010020F8B516460D460446FFF752FFC0B2801DA04203D20020C0430090F8BD75
:40244000B2B2E9B2684600F0D5FF0099481C03D0024AA000526811500098F8BDBC010020F8B50746FFF736FF801DC6B20A49002005460C680DE06178002907D06188B942D4
:4024800002D32078FFF7B4FF002804D1241D6D1CEDB2B542EFD3F8BDBC01002010B5002801D0FFF795FF10BD70B506460948002504680BE06178002905D062882078121D7A
:4024C0000023FFF7AFFF241D6D1CEDB2B542F1D370BD0000BC010020002070471CB5002469460C70142001902346054A05480CF0E9FC04480068401C00D1FF2420461CBD02
:4025000059250000C40100203EB5124A0146FF2000230124126800290DD0012914D0042908D104206946009308814B8110460CF0C4FC80B23EBD6846009304814381694674
:4025400010460CF0B5FCF4E768460093048143816946EBE7C401002070B545890468416800890300FFF73CFE06240408081D2124002004F079FF1BE0022908D0C8B22A46B5
:4025800021460AF049FF2046FFF788FF10E002202A4621460AF040FF2946204600F00AF806E000200CF082F902E020460CF02AFD002070BD014B0022DB681847C801002078
:4025C00070B5448905680089022803D0032809D0FF2070BD2246094C0023A46829460120A04708E0FFF7EAFC241DA2B200232946022005F046FE002070BD0000C8010020C7
:4026000070470000024800214160018041807047C801002070B50C46002186B016460391012802D0022859D116E003A9012005F080FE01281BD1039D324621462846FFF7BA
:40264000ACFC0095287801900220694608814E816846FFF7B5FF41E0214D002B686809D0049004A9022005F064FE01281DD0022006B070BD002812D0298840182146FFF7C3
:402680008CFC28880024801980B228806988091D884206D12C801348FFF792FF03E00320E6E788421AD96C6018E004986860E278A378110219430B4A698000231060E3565F
:4026C0005360032313815181A1788170E178C1706178417021780170042028800020C7E7C8010020600400203EB515460C46022803D004280CD000203EBD00910190022068
:402700006946088107484A8100680CF0D6FB07E00AF082FE044B0022DB6829462046984701203EBDC4010020C8010020014AD16090607047C8010020034801688068081A95
:402740000A214843000970476C04002010B5FFF7DBF9542204490548FFF71FFC03490120C870002010BD0000EC1B01004C07002010B5FFF7BDF910BD70B5134C2368002B1E
:4027800008D0207B1149C20705D04008400020738868A08070BD88680B4AA18880B29268814203D90A4D691A091802E0814202D2411A5118A160A080A0689842EAD300F035
:4027C00015F80CF097FB70BD6C040020C0102E40FFFF000010B508461946FFF7A7FF10BD704710B5FFF780FF10BD000003480021016041608160C160704700006C040020F5
:4028000010B502000DD0FFF7F1FF074C0321207B0843207310010A21FFF78EFA2060002010BDFF2010BD00006C04002000B504480A21806848430209FFF7D8FF104600BDF1
:402840006C0400200248007B8007C00F704700006C04002010B537490868002802DA364B01221A70022290430860344800693149C00B4031096A08425AD0012000F02AFA69
:402880002E482F497C30FFF78FF82A480E216C30FFF78AF8294820218430FFF785F8274814219C30FFF780F82448FF21C131A430FFF77AF82148FF212F31B030FFF774F8B0
:4028C0001E482049BC30FFF76FF81C481E49AC30FFF76AF81C491948491CB430FFF764F816481A49B830FFF75FF814481849CC30FFF75AF8114817490830FFF755F80F48DE
:402900001549A830FFF750F80C4814498830FFF74BF80A4812498C30FFF746F807481921C9029030FFF740F8FFF74CF8002010BDFF2010BD00F02E40D801002000002E40CA
:4029400055650000320300002F3F00003102000010520000EC160000FA12000031D000003AE3000070B50646581C80B245086D00002408E0304600F07FF81055000A1119E6
:40298000A41C4870A4B2AC42F4D3D80705D0D0182038D15CC47FD454C17770BD30B50A4C002100195B1E07E0541864782502545C2C430480891C89B29942F5DB994201D184
:4029C000515C018030BD000000102E4010B5FF2000F080F90F49FF2048700E481021801D41800121417001700A490020C91C4870FFF730FF04000AD100F0CCF8072106485B
:402A0000FEF7C4FF044807211830FEF7BFFF204610BD0000D8010020CC112E4030B504465B1C1804450C002308E0204600F024F8241D59005B1CA4B250529BB2AB42F4D35E
:402A400030BD000070B500210A4D5B1E0AE0541864782602545C344346193480001D891C80B289B29942F2DB994202D1515C4019018070BD00102E40014940180088704727
:402A800000102E40014A80180180704700102E4010B50B490020487000F07CF8002000F03FF9002000F02CF907210648FEF76EFF044807211830FEF769FF002010BD00004F
:402AC000DB010020CC112E4010B50B46062812D006DC01280CD0032801D1FFF7D9FF10BD0A28FCD00B28FAD105480078107010BDFFF76CFF10BD1146184600F02DF910BD16
:402B0000DE010020F8B5204DAC6A0127A0071F4E002816DA307806280ED1286A384328621B480069F903084381B219481030FEF73BFF042000F0CEF8134802212830FEF70B
:402B400025FFE00711D0062000F0C4F80F49FF20C91E48707078002802D1686B38436863094801212830FEF711FFE0050BD53078042802D1052000F0ADF80348FF210131F2
:402B80002830FEF703FFF8BD40F02E40DB01002000002E4010B503212348FEF705FF0120FEF798FF20483038406A204C80076178800F890001431C480C38FEF7F5FE607805
:402BC000002808D0401E022181401820FFF7A4F9C000083800E0B82081B21548FEF7E4FE1348032109021438FEF7DEFE10481149B830FEF7D9FE612189010F48FEF7D4FE72
:402C00000D480321001FFEF7CFFE0C490C48FEF7CBFE0B480B496038FEF7C6FE084801218838FEF7C1FE10BD70F02E40DE010020D8102E4090890000041E2E40FF0F00004E
:402C400058122E40209000000849087806280BD148780749002803D1486B400840004863C86A01221043C86270470000DB01002040F02E400148007870470000DB01002068
:402C800000B50300FFF7ACFA080D050D0B070507090D012000BD032000BD042000BD022000BDFF2000BD0000074A9168D26889B2064B92B2994204D105498A4201D10121F9
:402CC00000E000210170704780002E4033D000003FE3000010B50446FEF710FF072C01D9FF2C01D102480470FEF702FF10BD0000DB0100200149487070470000D80100204C
:402D000010B5064A012805D01921C9021046FEF74BFE10BD1D21C902F8E7000090002E4010B50A4A141D012808D009491046FEF73BFE08492046FEF737FE10BD04491046C2
:402D4000891CFEF731FE0349491DF3E788002E4031D000003AE300000078074AFF2803D04C2804D9553803E01078087070474F380870107070470000DA010020F0B50122B6
:402D8000002830D000292ED00224420600D003246D2342065B06D21800D0641C034600221EE00C2516466E43104D00277519AF720E4F002ABB51696007D0661EB24209D18D
:402DC00006466D367606760E05E05E06760E8027BE1B00E080269B198919521C2E81D2B2A242DED300221046F0BD0000EC050020074900200C2242435218927A012A05D0B6
:402E0000401CC0B20428F5D30020704701207047EC050020F8B5044616460F000BD0184D6868A04203D9FF306E30A04203D3FF206E30864201D90120F8BD2046FFF79EF834
:402E400000281BD0324639462046FFF7A6F8F0B200210C224A43521913895668F718A74208D90127A41B1B1B9772834206DAC01A1469C0B2491CC9B20429EAD30020F8BDFF
:402E8000EC05002010B500F05BF80648FF22C1686E320C460448FFF780F803492046FFF76DFF10BDE40100207C040020002070470020054A002902D0012902D002E0506060
:402EC00000E0906000207047E401002070B5084C154608460549A26889182A46FFF75DF8A0684019A06028B270BD00007C040020E40100203EB50A226946FFF7E7FF04464F
:402F000006480A2200686946FFF738F8002802D00020C0433EBD20463EBD0000E4010020002803D0FF226E32914201D2FF20704702490A61C860002070470000E40100206A
:402F4000024800214160816070470000E401002070B5074C15460548626880182A46FFF759FF60684019606028B270BD7C040020E401002010B503490A220968FFF7E8FF50
:402F800010BD0000E401002010B50F4A002313600E4A13600E4B18600E4801600E49012008600E490860000290600E490C4808600D4914300860FF381538506000F0BCF8BA
:402FC00000F0CAF9002010BD10020020F8010020240200202802002014020020040200201C070020080200201C020020014610B50020002910D0094B1A689C685118A142F4
:4030000009D25868196080188A0704D08A07920F891A091D196010BD002010BDF8010020F8B50024164E671E321F3D463168136806E01422624310328A58521C1BD0641CD8
:403040009C42F6D36A1C14D02C461422544322460C3288500C214843FFF7C8FF3168002808510AD031680020103408517068401C70602846F8BD2546E4E73846F8BD000033
:4030800008020020F3B50026F64381B000281BDB1E490968884217D80299002914D01B4F142204463F1D54432546396810354859401C09D0FEF722FD38682F1F4159C3599B
:4030C000994203DBFEF714FD3046FEBD214608310091465801590C20704308180C220299FEF75BFF0948761C001D0068C159B14200D100260549009A091D86500868415946
:40310000491C4151FEF7F4FC0020FEBD04020020002803DB07490968884202D90020C043704704491422091D09685043103008587047000004020020F0B500200D4A451EC3
:403140000346171F50600FE014260146714314680E1DA3510C461668083433511668083435511468401C635039688842ECD30020F0BD000008020020F3B50026F64381B0AD
:40318000002841DB2349096888423DD8029900293AD0204F142204463F1D54432546396810354859401C2FD0FEF7A8FC3868415900292BD0211D009146580C210059714374
:4031C0000F46C1190C220298FEF7E7FE11480021001D0068761C00590C34C0190160416081600C48001D00680159B14200D100260849009A091D865008684159491E415111
:40320000FEF776FC0020FEBD3046FEBDFEF770FCFAE7000004020020FEB504460D4600201E49089E0860471E009001900290002C11D0486885420ED2002A0CD0002E0AD044
:40324000642E08D808460C3001681C2068430C18207A002801D03846FEBD0120226020721846FFF7DDFE6060401C13D06681A6810A4827610C3067610179A94200D2057116
:403280000021684601810A462846029B00F040F82846FEBD00202072DDE700001002002038B50124009400F039F838BDFEB50027164EFF433D4600240EE01C203168604320
:4032C0000818017A002906D04068FFF721FF002801D0254603E0641C3079A042EDDA681C12D01C2130684D434419FEF707FC69466068FFF741FF0546FEF7FAFB002DD9D184
:40330000216868468847D5E7FEBD00001C02002038B50024009400F001F838BD1FB500220C49541E0A60002811DB496888420ED808491C220C31096850430818406801A971
:40334000FFF7A0FE401C02D0002004B010BD2046FBE7000010020020F0B50021114A4D1E174611710C3F0B46BD6016E008461C2460431668041D3551146806462350146849
:403380000836A3551468361DA353044616680A34335318301468491C255078688142E5D30020F0BD1C02002038B500210091002811DB0F49097888420DDA0D4D04010C35A5
:4033C00029680859002807D0201D0818694600F071F9002801D0002038BDFEF78FFB28680F34015D491E0155FEF782FB009838BD2C020020F7B582B0002502986E1E06601F
:403400002E48D21C024017462D4A2C4610460C380178106805E02301C358002B0FD0641CE4B28C42F7D3711C28D03401211D40180191039900F02CF900281FD101E0264641
:40344000F1E71F48016820460C300F521C480399026820460E30115419480399026820460F3011540398784300F0A0F8144900280968085102D00024009011E001251AE0F9
:403480000F48016801980818009900F02EF9002801D0012502E00098C0190090641CE4B203988442ECD3002D05D10298066004480179491C0171284605B0F0BDFCFF000040
:4034C00038020020F8B50D4600216A468C461180002839DB23490978884235DA214B04010C3319680A59002A2ED020460C300B5A801C0E5C184670438018954224D3854235
:4035000022D2002006E007465F43BF18AF4206D0401CC0B2B042F6D36046002814D0114E271DC8190C366A46294600F008F900280AD168460088012808D030682946C019D9
:4035400000F0D3F8002803D00120F8BD0020F8BDFEF7D4FA30680F34015D491C0155FEF7C7FAF3E72C020020F8B50F46002400F033F8002817D10C4900220B460C334A6053
:403580000EE021011D680E466A501D680C36AA53B61C1D680F31AA551D68641C6A54E4B2BC42EED31A71F8BD2C020020014610B5002000290CD0C91C064B8A08596892001C
:4035C0005C888A18A24202D898685A60401810BD002010BD2C020020F8B5064600200F4D009029700C0121466846FEF75FFE00280CD129460C3100980860301B001F84B20A
:4036000021466846FEF752FE002801D0FF20F8BD6C800098A8600020F8BD00002C020020F8B5002827DB19490978884223DA174C05010C342168485900281CD028460C30A2
:40364000085A009028460E300E5C401C0E5420682F1DC01900F064F800280CD12068002445590EE0094829460C300068C01900F03CF8002801D00120F8BD00982D18641CC1
:40368000E4B2B442EED30020F8BD00002C02002030B50D4604000BD0A800FFF787FF6060002805D000202570C0436080002030BD012030BD70B50D46040005D0002D03D09E
:4036C0000220205E002801DA012070BDFEF716FA0221615E60688900405828606088401E6080FEF705FA002070BD70B50D46040007D0002D05D002212078615E401E81422A
:4037000001DB012070BDFEF7F9F96088401C00B26080616880000D50FEF7EAF9002070BD10B5040009D0227800216068FEF73EFC0020C0436080002010BD012010BDF0B500
:4037400000231D46002802D00224045F0AE00120F0BD46689F00F6598E4201D1012503E05B1CDBB29C42F4DA15700020F0BD00000148007870470000400200207CB50546E9
:403780000024FEF71BFCA8796946087000A8062229460130FEF701FC0021684604F0C2F80C2804D0072804D01F2804D004E0022402E0042400E0272420467CBD10B500F0F9
:4037C000B7F8FFF757FAFFF75BFA10BD10B503240BF0E2FF002810D10BF086FF00280CD104F0F6FD002808D100F064FA002804D104F0F2FA002800D10024204610BD70B5DD
:403800000025044600280ED0A07901280BD8FEF7D5FBA0790028204602D002F0D9FD03E002F08EFD00E00125284670BD38B504460120002C20D0617801291DD800290BD077
:40384000FF25E535FEF7BAFB2846FFF715F9C0B22070072803D00EE0FF25CD35F2E70020694608706846FFF71FFA69460878012801D108202070002038BD70B50446012072
:40388000002C1FD06178012902D92278092A19D8002905D0FF25E5352078092803D004E0FF25CD35F8E708202070FEF787FB2078082808D00020FFF733FA21782846FFF781
:4038C000E1F8002070BD0120FFF72AFA0721F5E770B50D46040001D0002000E00548002802D0012101F0ACFF2946204602F086FA70BD0000C007002038B505460020044614
:40390000009022466946284600F070FE0098002801D00BF023FFA878214602F0B3F8A878214602F0A2F8641CE4B2052CE9D338BD38B5FFF79FF9042819D0052817D0062865
:403940001AD0032842D007280AD100206946087002460120FFF7B8F8FFF78CF90128FBD138BDFEF743F9FFF785F90128F8D0FFF781F90128F5D138BD02F0ECF805E0FEF7C1
:4039800035F9FFF777F9012803D0FFF773F90128F5D1A12424012046FFF76EF801220E4983079B0F0A70022BE5D149880029E2D0104301462046FFF765F82046FFF75CF8C0
:4039C000410849002046FFF75DF838BD02F0C6F80120FFF77FF938BD46020020F8B50646002402F0F9FD0546304602F00DFE00210346012632468A40174610462F401840E3
:403A0000002F03D0002801D1224394B2491CC9B20529EFD32046F8BD1CB50020694648706846FFF703FF01AA69460A20FFF74CF86946042008561CBD10B50C4601F07CF9B1
:403A4000002809D00179002906D0C1788078224602F082FA002010BD022010BD01480078704700008C0700204030C07E002800D00120704700B500F001F800BD88214843B1
:403A8000064940186030417F491CC9B24177052901D300214177C8B270470000A007002013B501F049F904000BD001F09CFC002807D0214601AA0A310620FFF705F80020BC
:403AC0001CBD02201CBD000010B50C4601F034F900280AD001F087FC002806D0224604490A20FEF7F1FF002010BD022010BD000075070020F3B581B00746014600260298E0
:403B000002F062FD0446002F01D0002500E0154D002D21D0284601F045F9032C04D13946029802F07BFD06463846029901F09DFF032C06D0002C10D00121384601F020FA93
:403B400003E03146384602F01DFF284601F05EFE0221284601F074FEFEBD3846029901F084FFFEBDC007002070B50446002503F013FB002801D00C2070BD2078611C02F0D8
:403B8000E5FAFF2802D01F25284670BD02F032FBFF2804D02178621C01F0DCFEF4E70725F2E710B503F0F8FA002801D00C2010BD02F0A4FA002010BD70B50D460446102166
:403BC0000BF00CFD1021601806460BF007FD334610221946204603F00BFB102130460BF0FDFC02202870204604F04EF870BD70B504464078217802028006850FE0781143B8
:403C0000A67809050002090D0643084601F094F8002812D0022D10D0032D0ED0002E08D00179092909D0002907D0214600F0A1F870BD0089002103F05CFF20460BF08EFD79
:403C400070BD0020704770B50446002503F0A4FA002801D00C2070BD2078611C02F076FAFF2802D002F0B8F900E01F25284670BD10B504F0B1F800F0F6F8002010BD10B505
:403C8000044600786178E2780843A17811430843217908436179084305D003F06FFA002803D00C2010BD122010BD204602F090FB002010BD10B5044803F0D8FA02F096F9B7
:403CC00000F004F8002010BD5C070020F8B5114D00266E706E736E716E76AE76EE766E75AE70EE70AE712F46EE730120B03778723F207871FF20B87100F00EFA00242046D5
:403D000001F038FB641C2406240EF8D03E72FE71AE73F8BDA007002070B505460E46084602F05AFC0446304602F06EFC0121A9400A46224001400A4301D0012070BD0020FF
:403D400070BD10B50446084602F05EFC0121A140014201D0012010BD002010BD10B5FEF789FF032804D101F0F9FE0120FEF7B2FF10BD70B5044600790D4609281CD000283D
:403D80001AD020464030817E491C8176204601F03DFDA078FFF76EFE064602462946204600F00CF8002806D1A0783146FFF790FD28460BF0D3FC70BD0846FAE7F7B50546E4
:403DC00048780C468006870FC8788978000282B0014368468180284601F010FB060007D021462846049A00F095FB304605B0F0BD384600F03DFC0746034601AA294620465E
:403E000000F0CEFA68468088231DC0B20090A878FF22049901F0ACFF684680883B46C2B2A878049902F050FBDFE770B5002500242846FFF7D3FD060010D03046E040C00708
:403E4000C00F07D02146284601F003FE21462846FFF750FE641CE4B2052CEED36D1C2D062D0EE4D070BD10B502F0C0F8FFF72EFF0BF0DCFC002010BDF8B5002400F081F850
:403E80000123012800D10124104F00203E4620360425082203E0002801D0002100E031460979002907D001290BD002290BD0114681402143CCB2401C0006000EEBD07C7021
:403EC000F8BD1C43F7E72C43F5E70000A007002010B5FFF7D1FF10BD10B50B4681791943817103D08078114602F0B2FA10BD10B582798A43827102D1807802F0C1FA10BDB6
:403F000070B5FF25D53502242846FEF7B5FD0C4A9178002901D0022906D1137852789A18282A01D9032402E0032900D101244105490DE00201432846FEF7A4FD70BD000047
:403F40004202002010B500F022F8002807D0012805D0032801D0042801D0002010BD012010BD014610B50020C90701D000F009F810BD014610B50020C90701D000F001F8FC
:403F800010BD10B52020FEF777FD000A10BD10B51820FEF771FD410501D5042010BD4007800F10BD38B5044640060CD5684601F0DBFD0220FFF78CFF072002F033F9684674
:403FC000007801F045F9200613D5FFF7E0FF01280FD1684601F0C8FD6846007800F09EFA072002F01FF9012001F078FC0220FFF76FFF38BD10B5034A0178117002F021F9D2
:40400000002010BD4202002010B50446FFF7B9FF002801D00C2010BDA27B01211848002A827801D00A4301E05208520082706279012A0FD0C17849084900C1702079012875
:404040000CD06188208802F00BFF2080207904280BD00DE0C2780A43C270EFE7E01D02F09FF90848808C208002E0E01D02F098F9054920798870204602F0F2F8002010BD28
:40408000A00700204C0700204202002038B50478FFF777FF844201D10C2038BD002C18D0072069460870FFF74DFF012807D10121684600F091F8012801D0092038BD684620
:4040C000007802F0AFF8FFF71BFF02F0F6F8012014E0FFF737FF012806D1684601F044FD6846007800F04EFA072002F09BF802F0DBF8FFF746FF0028FBD10220FFF7E8FEA2
:40410000002038BD10B5034A0178517002F078F9002010BD4202002038B568460BF0B4FA002801D01F2038BD01210098C90201804180002505714571857107214173857317
:4041400002F08EF8009C202200212046FDF72EFF25702A460021601CFDF728FF204602F070F8204602F04CF900980BF0F7FA042200210248FDF71AFF002038BD420200208C
:404180000346084800B5834209D8184600F0D4FD002804D00089984201D1012000BD002000BD0000FF0E0000074A9179491C8906890E917138220A4092014907090E114319
:4041C0000843024908407047A0070020FF0E0000C006C00E70470000F8B507460E4600240D4803E0002C01D0002500E005462979002905D0641C2406240EF3D00020F8BD00
:40420000204601F0B7F82E712046FFF7CDFF28813C700120F8BD0000C007002010B503F01BF80222002100F003F801F087FE10BD10B5094B40074907000F090F185A595A65
:4042400040185043C0086421FDF776FD002800D1012080B210BD0000401C0100F7B53D20405C88B016460C46002829D030786946087200252046FFF7F7FB012800D001251A
:40428000204603A938300191009023460327A17E34332A46206A03F003F802A8089900900B46019120463A4603A9243002F082FF02466846007A3070204601F047F810464E
:4042C0000BB0F0BDFFB587B00C4605461078694608723D20005D1746002826D000262046FFF7C2FB012800D00126204603A93830019100902346A17E34333246206A02F00A
:40430000CFFF02A80090291D019120462B1D03A924300A9A02F04EFF02006846007A388002D1204601F012F810460BB0F0BDF7B53C20405C88B015460C4600280CD028780B
:4043400069460872002806D000262046FFF78CFB012803D003E01F200BB0F0BD0126204603A938300191009023460327E17E34333246E06902F094FF02A8089900900B46F9
:40438000019120463A4603A9243002F045FF02466846007A2870204600F0E2FF1046DBE7FFB505463C20405C87B016460C46002810D0084601F022F801280BD03088694650
:4043C0000883002809D000272046FFF74DFB012805D005E000200BB0F0BD0220FBE70127204602A93830019100902346E17E34333A46E06902F054FF06A80090291D0191E1
:4044000020462B1D02A924300A9A02F005FF02466846008B30806846008BA870000AE870204600F09DFF1046D5E770B50D460446FFF71AFB01280AD0E87AA97A00020143B2
:40444000A07801F04BFC012808D0002070BD00222421204602F04EFC242070BD28214C200155204600F09AFB282070BD002801D0002000E003484030C07F012800D00020AD
:4044800070470000C00700200146002049070ED50021084B03E0002901D0002200E01A461279022A04D0491C0906090EF3D0704701207047C00700200146002049070ED528
:4044C0000021084B03E0002901D0002200E01A461279022A04D0491C0906090EF3D0704701207047C007002010B5044680346068002803D00BF046F90020606010BD4030DD
:40450000417070474030817070474030017070470171704792001018C166704770B53C2501F0F6F8040004D020460021433001F08FFB2946204600F0C3FB002C02D0A07857
:4045400001F078F870BD000010B5002801D0002000E00348002802D0008903F011FB10BDC007002010B5002801D0002000E00448002804D00179072901D100F041F810BDF6
:40458000C007002010B501F0C3F8002802D0807801F050F810BD00207047000070B50546008A00281ED010491122897A1140C90618D5294640314A8A098A521C4A4392B2A2
:4045C000D10800D10121540801E0621A94B2A042FBD9FFF7CDF8012804D1298AA878224601F05AFC70BD00004C07002000230B60052A04D292001018C26E0A60C366704798
:4046000038B5044600200090A079002814D14020015D052901D00E290ED168460BF044F8002809D12046009902F04CFB03481021C28A2046FFF750FC38BD00004C070020A3
:4046400010B50B4604460146184602F01BF8002802D020460BF08CF810BD13B5044601AA11460620FEF730FA6846818861811CBD002800D10220704770470000F8B5044639
:404680002346401D543300909A1EA078911E01F07AFA25464035A88A298A8000FDF74CFB401E81B2688A884203D96982A07801F04CFF20460021433001F0CAFA8020FEF70D
:4046C000DBF9E88102F0C8FDE989891C8AB26179FFF7AEFD01F032FC02F0BEFD2A8A6179FFF7A6FD074601F01BFC688A00280BD0FF26F1363046FEF7BFF9032109020143D9
:404700003046FEF7BFF902E0002001F00CFFFF206130FEF7B1F96E8A002E0BD070431049FDF7FAFB0004000C01D0401C80B20D49488002E00B4800214180288A704381B2D7
:40474000A07801F06BFE2837B9B2204602F08CFBE98AA07801F0BAFDA07801F0A9F9F8BD71020000460200207FB504468034616805460E46183108226846FDF70EFC314680
:404780002031082202A8FDF708FC102168460AF025FF6068102108300AF020FF60682B46083024331022694602F022FD7FBD10B504460821FFF79BFB10212046FFF797FBBC
:4047C000207905281FD006281DD008281AD12189002003F04DF9072020712046FFF744F9014620464030012913D00E21017000210176204600F02AFF2046FFF775FE204664
:40480000FFF7CCFE10BD20890122002103F014F9E1E70521EAE70000FFB581B01F4604460821FFF764FB10212046FFF760FB2079082803D0092804D0042203E0042201254F
:4048400001E009220025204600F0C4FD264600204036307022712046FFF746FE0398002D02D0012808D00BE001280AD120890022029903F0E1F804E02189029803F0F8F854
:40488000012700203076012F04D0204600F0DEFE05B0F0BD02983073204602F057FA054605480121C28A2046FFF716FB002DEFD109202071ECE700004C07002070B50C46B5
:4048C0000546FFF7D1F8012809D108212846FFF70EFB0023012221462846FFF79DFF70BD10B5044600F076FD2046FFF7FDFD00214034217010BD70B505461A24FFF7B4F830
:40490000012809D108212846FFF7F1FA0023012221462846FFF780FF70BD0000F8B50446002000900E4668460AF0BEFE002801D00D20F8BD8420005908212030009D00F002
:40494000F7F920460421383000F0F2F9002E02D1204600F07DFD2946204602F043F90E480821C28A2046FFF7B7FA204600F0D5FE25464035002808D0204600F023F800282B
:4049800001D0092028700020F8BD08202870204600F03CFFF7E700004C070020014610B540310A460978082906D0092907D00A2901D100F091F810BD0B20107010BD00F0DD
:4049C00001F810BD70B50446007925464035052805D0062803D008280FD00C2070BD03220621204602F086F90D480821C28A2046FFF772FA1120287010E006202873204629
:404A000002F0A4F90646AA8A0A20424301212046FFF762FA002E01D109202071002070BD4C07002038B504460020009068460AF03BFE002801D00D2038BD2046009D00F08E
:404A40008DF908202071204600F002FD2946204602F0FAF800213D2001550F2040210855204600F0D3FE002038BD00B5024600F0B1FC10214032117000BD10B50446FEF76D
:404A8000F3FF012809D04020005D112805D100231A4606212046FFF7BFFE10BD10B5FFF786FE10BD38B504460021684600910AF0FBFD00280CD12046009902F03CF9054899
:404AC0000821C28A2046FFF707FA0D204034207038BD00004C07002038B504460021684600910AF0E1FD002801D00D2038BD2046009902F015F905480821C28A2046FFF7A4
:404B0000EBF90C2040342070002038BD4C07002000787047F8B50025002801D0002400E01A4C002C28D0204600F05DFC002823D0207903281CD005281CD026464036B18AA1
:404B4000A07801F079FCB078012815D10021204601F0B5FD274680373868002802D00AF011FE3D600020B0702079072805D007E0042000E006202071F8BD2046FFF70EFD57
:404B80000221204600F05CFEF8BD0000C007002010B54C22115400F046F810BD10B50446FF21FFF7A4F909202071A07801F074FC10BD000038B5FF216A461180002801D0EA
:404BC000002400E0064C002C08D011460620FDF77BFF684601882046FFF73FFD38BD0000C007002010B504468079002809D022214C200155FF212046FFF779F9204600F073
:404C000012F810BD10B5037902464032002B03D01173092B02D003E0002100E02221117300F001F810BDFEB504460089002700902781207926464036002817D0012815D03C
:404C400002280AD112E002AA01A9204601F008FD002807D101980AF08BFD204601F028FD0028F0D02046FEF747FEB776254680352868002802D00AF085FD2F606868002892
:404C800002D00AF07FFD6F60317B002915D0009800F047F8A078002100F01EFF2046FFF7BDFAA07801F004F8A07800F0C3FC0B20FFF70EF900F002FCFEBD1F213173E6E7B5
:404CC00070B50E46054602F0C3FA044606702846FEF7CAFE014601204140204661700C3000F09FFF002D10D02889608028464030C1782171002E10D169796171018AE18076
:404D0000418A2181808A608107E01820FDF7B4FEC005C00F207100206080204602F051FE70BD0A4610B50146002002F041FF10BD10B50AF02FFA10BD00B50146FFF748FAF9
:404D4000002801D0002000E00348002802D002898A4200D0002000BDC007002038B5044680346068002806D168460AF0ADFC002801D100986060606838BD000010B50146EC
:404D800000F03CFB0128887802D0FEF777FE10BD88214843024940186030007F10BD0000A007002070B5054604464035A87F012811D1A1788820084A484380186030067F74
:404DC0003046FEF7A9FF002805D10220A877A078314601F021F870BDA007002010B50E4CE079002816D0FFF720F80C48827FC17F808B00F06BFB01280CD10020E07100F0E3
:404E0000BCFE0446AC20FDF737FE010B02D0204600F00EFA10BD000050080020A007002070477047490510B5490F0B00FDF7D8F9060704080C0C0F073E21FFF7A9FE10BD78
:404E40000821FFF7DFFE10BDFFF7EDFE10BDFFF7C9FE10BDF8B507460025002D01D0002600E0204E00F064FE3046403044890021418100F067FE304600F0B5FA01282BD129
:404E8000A00702D52846FFF745FEE00602D52846FFF790FEA00601D5FEF7C7FF600601D500F0C8FA200602D5284600F01DF8600702D5284600F0FAF9380402D52846FFF783
:404EC00051FB780402D52846FFF73EFBE00703D021463046FFF7A6FF6D1C2D062D0EBCD0F8BD0000C0070020F8B5002801D0002400E0204C002C39D025464035A8780128B1
:404F000034D1E98AA07801F0E1F92046FEF7ACFD01282BD002F0A0F92A8A6179FFF788F9064600F0FDFF2836B1B2204601F09CFFE98AA07801F0CAF9FF206130FDF79CFDF7
:404F40006E8A0D4F0146002E11D0304648430B49FCF7E2FF0004000C01D0401C80B27880288A704381B2A07801F058FAF8BD0020F5E70000C0070020460200207102000091
:404F800070B50D46124A010001D0002401E014462034002C1BD0204600F030FA01280AD18820484380186030007FFEF7B5FE002801D101F055FE20464030817E491B81760D
:404FC000204600F023FC2089294602F092FD70BDA007002070B503460088FFF7ADFE040013D000F000FA00280FD02079092819D02546997840352973204601F0A7FE0646B8
:40500000A878012803D0AA8A02E0022070BDEA880A20424301212046FEF75EFF002E01D109202071002070BD0EB5002217216B460292198100905A810120029B00990AF035
:4050400013FC0EBDF8B5184E0024F079002820D10025AC20FDF710FD000B21E0204600F007FEFDF709FD07462A46214600F02EFA01280FD00D48012187838577C477F171EC
:40508000002D01D0002000E02030002801D000F0BDFBF8BDAC20FDF7EFFC000B641CE4B20028DBD1F8BD000050080020A007002010B50088FFF740FE002809D0014640317E
:4050C0000C460978082905D00B2903D00C2010BD022010BDFFF776FC002801D009202070002010BD70B503460088FFF725FE040008D0254640352878082805D00B2803D06B
:405100000C2070BD022070BD8420005910220830991CFCF742FF2046FFF726FB2878082804D02046FFF7D8FC002801D00A202870204600F06BFB002070BD000010B50C464B
:40514000002121700088FFF7F7FD03000BD000F04AF9002807D009481121807A0840C00603D4112010BD022010BD022020701A8A1889002102F038FD002010BD4C0700200D
:40518000F8B50F46002100910088FFF7D5FD040012D000F028F900280ED0E079410641D4617E02264A07002A08DB8907402500291ADA2843E07135E00220F8BD02F048F8E8
:4051C0000021017021894180A1898180217E4170E189C1803E7005460178134802F06AFA284602F0A5FC1DE0204600F00DF9012806D068460AF058FA002803D00720F8BD3F
:405200002A20F8BDE07900992843E071204601F0C7FD607E0421304360760448C28A2046FEF75AFE0020F8BD1D0400004C0700203EB500220F236C46029223810091019053
:40524000628169460EC900200AF00EFB3EBD000070B5054600F05CFA040021D003202071254600264035EE76E6702046FFF706FA01F01AF80920FEF72BFEA07800F006FDD7
:405280000121204600F0DCFA2E706E70AE7000212046FFF715FD0449887B401C887370BD284601F0F9F870BDA007002010B5002801D0002400E00A4C002C0FD02046403066
:4052C000417802290AD1002141702046FEF7CCFB002803D10221204600F0B2FA10BD0000C007002070B503460D460088FFF724FD04000BD000F077F8002807D012481121FD
:40530000807A0840C00603D4112070BD022070BD20464030418A008A491C41430804C10C5888884201D2122070BD20822079072802D12046FFF732F90220287020890021D0
:4053400002F07AFC002070BD4C070020016A491C016204D1817E491C4906490E81767047C169491CC16104D1C17E491C4906490EC176704770B500250646002801D00024D4
:4053800000E0114C002C1CD0882200212046FCF70DFEA67000202646207140363070204600F018F8204601F07FF9084820820848B577807A1121084000D001202075012062
:4053C00070BD002070BD0000C0070020B80B00004C070020002101628176C161C17620300177417770470079002805D0012803D0022801D001207047002070474030807F80
:40540000002800D00120704740300078002807D0012805D0052803D00E2801D0012070470020704710B5807801F0EEF8002800D0012010BD10B500F0A0FB0446AC20FDF72D
:405440001BFB010B02D02046FFF7F2FE10BD000070B5054604464035A87F002823D1FF206075A0788821144A484380186030417F8823491CC9B24177A07858438018603009
:40548000052901D300214177A0788821484380186030467F0677A1783046FEF73DFC002802D00120A87770BD0220A877A078314600F0B2FC70BD0000A00700200020401C59
:4054C0000006000EFBD0002070470000F0B515468207920F85B0C004C00E02926A469080002D01D0002400E0514C002C29D0084600F0BEFB03906846808800280BD0029810
:40550000012845D0022843D003280CD03D20005D012872D086E00398FDF7AEFA01462046FFF79BF87EE00020029002A80AF09CF8002807D03D20005D012876D12046FFF724
:4055400005FF72E06846029E8388324600210398FDF708FA0398FDF78FFA01462046FFF77CF8284600F0B0FA01AA21463046FEF775FE002806D030460AF0E6F83D204C2115
:40558000085528E0F5773146204601F0DBF94CE000200090278968460AF056F8002802D0002005B0F0BD6846009E8388321D00210398FDF7D7F90398FDF75EFA01462046C0
:4055C000FFF74BF8284600F07FFA25464035287E00280CD103E02046FFF7E0FA25E001AA21463046029BFEF76DFE002806D030460AF0A0F83D202873EDE710E00298FFF71B
:405600003BF8390A000101433770717068468088B070000AF0703046FFF706FD05E02046FFF794FE284600F04FFA0120B9E70000C007002010B5044A917B002901D0491ED6
:405640009173FFF797FE10BDA0070020F8B5074606464037B87F00283DD0B0788821009048431F4945186035287F0099FEF769FB012831D0287F401CC4B2052C00D3002434
:405680000020B877FF276F772F77A87702460146009800F041FD717DFF2903D0304600F0C4FF777501F0DCFA00252F462246694630460097FEF79AFF0099002902D030465A
:4056C000FEF757FB641CE4B2052C00D300246D1CEDB2052DEAD3F8BD0320B877F8BD0000A007002010B502460021084B03E0002901D0002000E018460479944204D0491C43
:405700000906090EF3D0002010BD0000C007002000B50120FFF7E6FF00BD10B5044601F097FD2189018080346168416061682831816002F0B7F910BDF7B50646087982B044
:405740000C46092807D0A078F0770846FFF756FE012806D010E030460AF00AF8022005B0F0BDA1788820284A484380186030007FFEF7D2FA012810D0A078FEF777FE0128F9
:405780000BD037780121304601F017FA25462035062F36D00B2F0FD107E06846027C21463046FEF74DFF0D20D9E72046FEF75CF9012801D1002028772046FFF7DFFA0546A8
:4057C00004AA21463046FEF7B2FD01205F2108556946087C0090A07833463A46294600F0C7FA69460A7CA0780323294600F06CFEA0782946FEF76CF8304609F0B9FF002025
:40580000ADE70120D7E70000A007002010B502464032937F0021002B03D1927E002A00D00121064AD279002A00D000210279092A00D10121807800F063FE10BD500800206C
:4058400070B50C460646FEF70FF9002814D1012C0ED935464035A87800280DD1687802280AD03079092807D03046FFF7DBFD0446204600F080FD70BD0124F9E770B50D4691
:4058800001280BD0082808D1A8241146B020FDF7F9F829462046FDF7F5F870BD2020FAE710B501460820FDF7EDF810BD10B50446FF20F130012C01D1FF20D530002200F0A1
:4058C0006AFE1020FDF7D8F80349A043088001461020FDF7D7F810BD4A02002010B504461020FDF7C9F80449A043088001461020FDF7C8F810BD00004A02002010B5044603
:40590000012802D0082C07D102E0FF20D53001E0FF20F13000F034FE1020FDF7ADF804492043088001461020FDF7ACF810BD00004A02002010B504461020FDF79DF80449B9
:405940002043088001461020FDF79CF810BD00004A020020F8B507460120B84085B214460E46012229467C2000F015FE32462946782000F010FE6078217800020143E0784F
:40598000A5780002054360792679000206430C2047430D2080013C182046FDF773F8241D29462046FDF76EF8201D3146FDF76AF8F8BD8B00034310B5D10191201943C000DC
:4059C000FDF760F810BD000070B505460C46407829780002014341200001FDF753F8E878A978000201430A48FDF74CF860782178000201438320C000FDF744F8E078A17880
:405A00000002014302480830FDF73CF870BD00001404000070B50D46044681B201208002FDF730F8210C0448FDF72CF881202946C000FDF727F870BD0404000070B5054664
:405A400000242846FDF718F8641CA4B2102CF8D370BD10B50C460146B020FDF713F8FF2021462D30FDF70EF810BD10B50C460146B020FDF707F8204600F0B8FD0021FDF76E
:405A800001F810BD70B50C46054600F005F821462846FFF7DEFF70BD10B50C460146B020FCF7F0FFFF2021462930FCF7EBFF10BD10B50146B020FCF7E5FFFF2000222021CE
:405AC0001D3000F068FD10BD010210B54D310020FCF7D8FF10BD000010B504020029014608D0B020FCF7CEFF214675310020FCF7C9FF10BDB020FCF7C5FF51200021400188
:405B0000FCF7C0FF00210348FCF7BCFF21467631ECE70000240A000010B554210020FCF7B1FF10BD10B553210020FCF7ABFF10BD10B5034908884880FFF7D0FE10BD000003
:405B40004A02002010B502484088FFF7F3FE10BD4A02002010B5FDF777F810BD10B552210020FCF78FFF10BD10B504461820FCF783FF8004400F207010BD10B5B020FCF7B3
:405B80007BFFC0B210BDF8B50E4601461C461546B020FCF777FFFF20E930FCF76DFF0746FF200130FCF768FF3080FF200930FCF763FF2880FF200530FCF75EFF2080790797
:405BC0000698490F0170F8BD10B5C820FCF754FF10BD10B50C46002812D05820FCF74CFF2070000A60705C20FCF746FFA070000AE0706020FCF740FF2071000A607110BD7F
:405C0000FF20C130FCF738FF2070000A6070FF20C530FCF731FFA070000AE070FF20C930E8E770B504466820FCF726FF06466C20FCF722FF05467020FCF71EFF2670310A81
:405C40006170A570290AE1702071000A607170BD10B50446012905D01820FCF70DFFC00B207010BD4820FCF707FF8007C00FF7E70120C002704710B50C460146B020FCF764
:405C800001FF0321A0014902401810BD8821074B414310B5C918FF2260314A770A7700228A77114600F038FA10BD0000A007002088225043074A10B58018FF216030417713
:405CC0000177002181770448418EFF201D3000F057FC10BDA00700204C07002010B50C460146B020FCF7CEFEFF202530FCF7C4FE0222214600F002F810BD000010B5002302
:405D0000884201D8081A03E00024E443201A4018044980B2884201D8824200D90123184610BD0000FF7F0000F8B503465078167800020643D07895780002054350791779C3
:405D4000000288240743002900D098241946B020FCF798FE31462046FCF794FE201D2946FCF790FE204608303946FCF78BFEF8BDFFB581B014460D4606460A9FFFF77BFFEA
:405D80003B460021049AFCF75DFE02484019845505B0F0BD4E02002070B506460D4611242520A40108214001FCF76CFE2B46324600212046FCF746FE70BD70B521240546D4
:405DC0006401FFF7AFFE10232A4600212046FCF739FE70BD10B5044640782178000201438F20C000FCF74EFEE078A178000201430148FCF747FE10BD7C04000010B50C462A
:405E00000146B020FCF73EFE802021460143FF202930FCF737FE10BD70B50D460146B020FCF730FEFF241D342046FCF725FE01090901FF202943013001432046FCF722FE37
:405E400070BDF8B500242646012807D0032802D0052808D105E002240A2604E004240C2601E004240D26492701463F013846FCF709FE25204001FCF7FFFDC5B228462042D5
:405E8000F7D0252031464001FCF7FCFD00213846FCF7F8FD2846F8BD70B50D46044601461646B020FCF7EEFD512029464001FCF7E9FD31460648FCF7E5FD03218903082009
:405EC000FFF71CFD210275310020FCF7DBFD70BD240A000070B50D4604460146B020FCF7D1FDFF2029461930FCF7CCFD21024B310020FCF7C7FD70BD70B5491E8CB205469F
:405F00000146B020FCF7BEFDFF2021461930FCF7B9FD29024C310020FCF7B4FD70BD0000054910B5884200D908460146FF206130FCF7A8FD10BD0000FF0F0000054910B50A
:405F4000884200D908460146FF206530FCF79AFD10BD0000FF0F000070B588251446002900D098250146B020FCF78CFD2846FCF783FD2070000A6070281DFCF77DFDA0704E
:405F8000000AE07028460830FCF776FD2071000A607170BD10B51446024611200B4680010021FCF73BFD012C01D1FFF7B5FD10BD10B504460920C001FCF75EFD2070000AD7
:405FC00060700448FCF758FDA070000AE070FFF7A3FD10BD840400000121814010B589B200227C2000F0D7FA10BD000070B5FF210120FFF75BFCFF210820FFF757FC302025
:40600000FFF76CFC80210020FCF73CFD002211460320FCF759FD374DFF20A98DD530FCF731FD0024FF26F1362146B020FCF72AFD298F3046FCF726FD2046FFF739FE641C19
:406040002406240EF0D0FF20A98FF930FCF71AFD28481030044600F073F9204600F0B8F900F04CF8234CB82040346188FCF70AFDA188BC20FCF706FDE188C420FCF702FD11
:40608000FF20698EE130FCF7FDFCA12000210001FCF7F8FC3920FFF74DFCFFF743FD93200721C000FCF7EEFCFFF736FDE020FFF7C5FCE820FFF7C2FCF020FFF7BFFC002040
:4060C000FEF7ACF8618A0C48FCF7DCFC0A482821001DFCF7D7FCFF210131AC20FCF7D2FC832000218000FCF7CDFC5B210020FCF7C9FC70BD4C070020140A000010B50021A8
:406100007C20FCF7BFFC00217820FCF7BBFC74210020FCF7B7FC10BD70B50D4601461446B020FCF7AFFCFF261D363046FCF7A4FC01090901FF20294301308143002C01D1F0
:40614000102041403046FCF79DFC70BDF3B589B0FF2001900D208001009048780D7800020543C8788E780002064348790979000201437C200791FCF77FFC06907820FCF704
:406180007BFC059074210020FCF77CFC18480024049026E00120A04087B20098FCF76CFC03900098FCF768FC02900098FCF764FC039A29465140029A72401143079A424007
:4061C00011430BD10698074208D00598E040C1070998C90F814201D1019405E0641C0498E4B20078A042D5D801980BB0F0BD00008C07002070B5FF257C20FCF73DFC0849D4
:40620000002401230A7805E01946A140014205D0641CE4B2A242F7D8284670BD2546FBE78C07002010B504461820FCF725FC0721C90288436107890C01431820FCF722FC50
:4062400010BD10B50446E020FFF7F8FB20782246401CC3B20021E020FCF7A0FB10BD000010B5044641790079042817D040000843A17B032901D8C9000843617B4A0102438B
:40628000A079010207201143C00201431820FCF7F9FB21881C20FCF7F5FB10BD08460149E5E700000204000010B50120FFF716FB41210020FCF7E6FB10BD10B50120FFF737
:4062C00039FB40210020FCF7DDFB10BD10B50C460146B020FCF7D6FBFF2021460D30FCF7D1FB10BD70B50C4601461E461546B020FCF7C8FBE92021468000FCF7C3FB7520D7
:406300002946C000FCF7BEFBEB2031468000FCF7B9FB6C433B20A1B20001FCF7B3FB70BD70B50C4601461546B020FCF7ABFB21468420FCF7A7FB29468020FCF7A3FB70BDBE
:4063400010B504464078217800020143FF20C130FCF798FBE078A17800020143FF20C530FCF790FB6079217900020143FF20C930FCF788FB10BD70B5A124054624012046C4
:40638000FCF77AFB012D07D041084900814202D02046FCF777FB70BD014601221143F5E710B5044640782178000201436820FCF769FBE078A178000201436C20FCF762FB9F
:4063C00060792179000201437020FCF75BFB10BD10B5044640782178000201435820FCF751FBE078A178000201435C20FCF74AFB60792179000201436020FCF743FB10BD3F
:4064000010B50446E820FFF719FB20782246401CC3B20021E820FCF7C1FA10BD10B50C460146B020FCF72EFB21460248FCF72AFB10BD00001C0A000010B50C460146B02092
:40644000FCF720FBFF2021460530FCF71BFB10BD70B5054688000521FBF76EFC84B22946B020FCF70FFB21460448FCF70BFB290272310020FCF706FB70BD0000040A0000C8
:4064800010B504460146B020FCF7FCFA210273310020FCF7F7FA10BD10B504460146B020FCF7F0FA210270310020FCF7EBFA10BD10B504460146B020FCF7E4FA21027131ED
:4064C0000020FCF7DFFA10BDF8B505461E4614460F46084600F08AF800902802A1000843304304462946B020FCF7CCFA21460098FCF7C8FA0148C0194655F8BD5302002022
:4065000070B50D460146B020FCF7BCFAFF241D342046FCF7B1FA40218843A90101432046FCF7B0FA70BD70B5A124054624012046FCF7A2FA0222002D01D0104300E09043EA
:4065400001462046FCF79EFA70BD70B50D460146B020FCF797FAFF2029460930FCF792FAA12424012046FCF787FA0222002D01D0104300E0904301462046FCF783FA70BD27
:4065800070B50C460546FCF777FA204301462846FCF778FA70BDF8B516460D460746FCF76BFA014600202C0003D104E06408401C80B2E207FAD08640A9430E43B1B238462E
:4065C000FCF760FAF8BD0000024A1018405C8007800F70475302002010B50146B020FCF751FAFF202D30FCF747FA10BD8000FF30413070470246FF20052902D201484018CF
:40660000805C70474E02002010B50146B020FCF739FAFF202930FCF72FFA10BD0A4600B501461046FFF7E6FF00BD38B50C46054600216846009109F037F8002804D1009912
:4066400028464C7000F09EFB38BD10B5044680780021FFF73BFE01212046FFF7F1F810BD436E002B0CD00B60014660318B781370826E4266CA788A70002181660846704785
:40668000FF20704710B50346446E6033002C04D0846E002C04D0FF2010BD41669A7001E08166DA70002010BD0021416681667047406E002801D000207047FF20704770B544
:4066C0000446C0790D46810610D5DF210840E07100F0BEFD0570218941804034218A8180618AC180A18A018101F03EF970BD000010B50446FEF782FE01280AD1A17888209D
:40670000054A484380186030007FFDF705FB012801D000F0A5FA10BDA007002070B50D460446FDF7A1F901281CD02079042801D0072816D1E879AE7900020643A078314654
:40674000FFF7CCFA012813D03246691C204600F035FA02212046FDF7D2FE01212046FFF76FF870BD01222421204600F0C3FA70BD28214C2001552046FEF710FA70BD70B506
:406780000D460646FDF751FE002847D120213046FDF7ADFB3446687840346073E87820220002E081A9780843E0816879010228790843218A814203D0F1791143F17120821E
:4067C000E8790102A8790843618A814203D0F1791143F1716082687A0102287A0843A18AE180814203D0F1791143F171A082A08A218A8000FBF7A0FA401E618A80B28142F1
:4068000000D9608201213046FDF77CFEE87AA97A000201430022304600F0DCFA70BD0000F8B50C460546FDF71FF9012849D0294EB07AC00709D0284640300090007800285A
:4068400005D0102805D01F212EE01A212CE0002700E001272846FEF781FA002823D02E4680360822611C7068FBF797FB7068617A20300172A17A4172706821461830082257
:406880000B31FBF78AFB21462846042213313430FBF783FB39462846FEF740F8002810D1002F0FD012E007210322284600F022FAF28A08212846FDF70FFB11212846FDF783
:4068C00024FEF8BD06212846FDF722FE009801210176F8BD4C07002010B5FEF75FF810BD38B504460020009020790D46042801D007281BD12046FDF7B7F8012817D068462F
:4069000008F0D2FE002811D10C486A78807A00991040112210402075607E082210436076204600F079F92046FDF735FE38BD08222421204600F0DEF938BD00004C070020D5
:406940007047000070B506460D460846FEF7E0F804463046FEF747FD00280CD0142C04D32946304600F0C7F805E00549A0000A58294630469047284608F0E6FE70BD000071
:40698000501C010070B50D460021002801D0002400E00C4C002C14D020464030C177807F032802D12046FEF751FE2046FFF7A0FE142D04D20449A800095820468847FEF726
:4069C0007DFD70BDC0070020A01C010010B5014640310C4609780E2903D1FEF723F80120207610BD10B54021095C0F2901D1FEF73CF810BD4021095C0F2902D10021203090
:406A00004177704738B5044600220E4800920D46807A11210840C0060ED52046FEF7F4FC012809D0684608F03FFE002803D12046009900F053F938BD2946204600F05BF8C2
:406A400038BD00004C07002010B51021FDF74FFA10BD10B54978FDF731FF10BD10B5FEF70CF810BD012120304177704710B54021095C0C2901D1FEF715F810BD10B5402144
:406A8000095C0D2901D1FEF709F810BD70B5044600790D46052803D0062801D0082802D12046FDF71DFF68784C21085509212046FDF72EFD2046FFF7C8FD2046FCF7D4FF4D
:406AC0000128A07805D0FFF7E7FC2046FEF79EFE70BDFFF7EDFCF8E710B50446FF21FDF706FA16214C200155A078FFF7D5FC2046FEF78CFE10BD70B50C460546FEF77EFCE7
:406B0000002802D02078687570BD21782846FFF78CFD70BD70B5054648780C46032802D12846FDF7E8FE6078122803D110212846FDF7DDF970BD704738B5044600200D4661
:406B4000009004212046FDF7D2F968782076E8780002A081A9780843A08168790002E08129790843E081607E04210843607680070CD4684608F098FD00281CD12046009949
:406B800000F00EF9607E022108436076E079410611D5BF210840E07100F05AFB00210090017021894180A1898180217E4170E189C18000F0BDFF38BD7047704770B5044647
:406BC000C07815460A4600280AD00020E070C1B2A078FFF7A9F8A0782946FFF77BF970BD0120F3E770B50546042008700C468420415908222031601CFBF7CFF929462046E3
:406C0000042238310930FBF7C8F90D2229462046FEF792FD002070BD70B5054609200C46087008220021601CFBF7C0F9287D607004480922C07AA07029462046FEF77CFDB6
:406C4000002070BD4C0700200B4610B501460B20187001221846FEF76FFD002010BD0000FEB50024164F03E0002C01D0002500E03D462846FFF71CFD00281BD15F20405D24
:406C8000002817D16A4601A92846FFF7E9FC002810D1019869460A7806782946FEF74CFD022E07D1A8780121FFF72AFC09212846FDF72EFC641C2406240ED5D0FEBD0000CB
:406CC000C007002010B50B46122119708178D977014601221846FEF72FFD10BD10B50B46132119708178D977014601221846FEF723FD10BD38B50546002000900C4668462E
:406D000008F0D2FC002801D0072038BD00980D210170447002222946FEF70EFD002038BD0B4610B501460520187001221846FEF703FD002010BD0B4610B50146062018706D
:406D400001221846FEF7F8FC002010BD38B5054600200090684608F0A7FC002801D01F2038BD009C022020704C20405D6070A878E0772846FFF769FC022229462046FEF709
:406D8000DBFC38BD10B50B46072119708178D977014602221846FEF7CFFC002010BD000010B50B460A49044608880C221A704A795A709870000AD870C8881871000A5871F3
:406DC000062221461846FEF7B7FC002010BD00004C070020F8B50446403417460E460546E289617B8078FFF79BFA002F0DD100F033FAE2896979FDF71BFAFFF79FF8608A76
:406E0000002800D00120FFF78EFBE388A08A984200D90346628A218AA878FFF763FAA08A218AC000FAF788FF81B2ED208000FBF729FEE089E188C0080A30081881B21920D9
:406E4000C001814200D90146A878FFF7F5FAA8783146FFF751F801212846FEF7F1FCF8BD00B500F01FF800BD10B50A4604460B491046FAF761FF4034C01C218A80B28142A9
:406E800000D208464900081A81B20548E182C089002802D0884200D2E08210BD710200008C07002040184008704770B505460C46000702D5A0B2FDF7CDFFE80702D0200E38
:406EC000FDF770F870BD70B5054650C8FCF730FDFBF752FC2889C01F0300FBF781F90C07130B171A1D0B0B200B100C0BA0B23146FFF7DBFF70BD204600F048FB70BDFDF7BB
:406F00006DFF70BD2046FCF772FE70BDFCF78DFF70BDFDF785FF70BDFDF783FF70BDE0B2FEF790F870BD0000F3B5002483B0064627460094019408200294FBF79DFD05461C
:406F40000640400713D55020FBF796FDC0B20090700707D5009CA00803D1FBF773FC012800D10127002204200099FEF787FC280755D5A820FBF780FD0146C207674804D03D
:406F8000428907231B029A43428142890A434281002208200091FEF771FC300739D50098044340062CD5FF200930FBF765FDFF201D30FBF761FD8006C00F0190FF200930F6
:406FC000FBF75AFD00281BD00198002818D1544801214170FF20F130FBF74EFD0321090288430146FF20F130FBF74CFDA1200001FBF742FD02210143A1200001FBF742FD96
:4070000000981021884303D1FBF71CFC012800D101270098C00602D50220FBF76BFEA8070CD53820FBF728FDC1B2B00702D508040443012700220220FEF720FCE8071DD05E
:407040002020FBF719FDC0B20090F0070BD000980221000604430098884303D1FBF7F2FB012800D101270098800702D50220FBF741FE002201200099FEF700FCE80605D5D6
:407080000120FBF727FE1020FEF70AFCA80628D5FEF79AFD234908800120FBF71BFE224900200870FF200930FBF7E6FC0090FF201D30FBF7E1FC80060099C00F00290DD028
:4070C00000280BD116494870A1200001FBF7D4FC02210143A1200001FBF7D4FC2020FEF7DFFB680602D54020FEF7DAFB0720694608810020009601944881002F07D0694660
:407100000EC90498002804D0002008F089FB05B0F0BD002008F0A8FBF9E7000000080020460200205802002041020020F0B587B0054605A81E461746019100900C9C04ABCC
:4071400006AA02A903A800F0C6F82846FEF735FE21463046FEF720FE6846017A0398FEF759FC05A904A8FEF72FFC6846027E21463846FEF71EFC07B0F0BD000070B5054855
:40718000C4782046FCF7EDFE05462046FDF77CF9284370BDA007002070B5054884782046FCF7E7FE05462046FDF786F9284370BDA0070020F8B5069E1F463478231FDDB274
:4071C0003B460095FFF7B2FF3819001FFEF702FE0520FEF736FE0446012229460798FEF7D9FE3570E00701D00020F8BD1F20F8BD70B51C4615460E46FEF7DFFD29463046C6
:40720000FEF7CAFD0320FEF71CFE012229462046FEF7C0FE1F2070BDF8B5069D079E2C780094FFF783FF0120FEF70BFE0746002221463046FEF7AEFE3019FEF7B9FE241D62
